{
  "_format": "hh-sol-artifact-1",
  "contractName": "MedicalRecord",
  "sourceName": "contracts/MedicalRecord.sol",
  "abi": [
    {
      "inputs": [],
      "stateMutability": "nonpayable",
      "type": "constructor"
    },
    {
      "anonymous": false,
      "inputs": [
        {
          "indexed": false,
          "internalType": "uint256",
          "name": "id",
          "type": "uint256"
        },
        {
          "indexed": false,
          "internalType": "address",
          "name": "patientWalletAddress",
          "type": "address"
        },
        {
          "indexed": false,
          "internalType": "string",
          "name": "patientIPFSHash",
          "type": "string"
        },
        {
          "indexed": false,
          "internalType": "bytes32",
          "name": "txHash",
          "type": "bytes32"
        },
        {
          "indexed": false,
          "internalType": "uint256",
          "name": "dateCreated",
          "type": "uint256"
        }
      ],
      "name": "LogPatientData",
      "type": "event"
    },
    {
      "anonymous": false,
      "inputs": [
        {
          "indexed": false,
          "internalType": "address",
          "name": "patientWalletAddress",
          "type": "address"
        },
        {
          "indexed": false,
          "internalType": "string",
          "name": "testResult",
          "type": "string"
        },
        {
          "indexed": false,
          "internalType": "bytes32",
          "name": "txHash",
          "type": "bytes32"
        },
        {
          "indexed": false,
          "internalType": "uint256",
          "name": "dateCreated",
          "type": "uint256"
        }
      ],
      "name": "LogPatientMedicalReport",
      "type": "event"
    },
    {
      "inputs": [
        {
          "internalType": "bytes32",
          "name": "hash",
          "type": "bytes32"
        }
      ],
      "name": "addHash",
      "outputs": [],
      "stateMutability": "nonpayable",
      "type": "function"
    },
    {
      "inputs": [
        {
          "internalType": "address",
          "name": "_patientWalletAddress",
          "type": "address"
        },
        {
          "internalType": "string",
          "name": "_patientIPFSHash",
          "type": "string"
        }
      ],
      "name": "addPatient",
      "outputs": [],
      "stateMutability": "nonpayable",
      "type": "function"
    },
    {
      "inputs": [
        {
          "internalType": "address",
          "name": "_patientWalletAddress",
          "type": "address"
        },
        {
          "internalType": "string",
          "name": "_testResult",
          "type": "string"
        }
      ],
      "name": "addPatientMedicalReport",
      "outputs": [],
      "stateMutability": "nonpayable",
      "type": "function"
    },
    {
      "inputs": [],
      "name": "getAllpatients",
      "outputs": [
        {
          "components": [
            {
              "internalType": "uint256",
              "name": "id",
              "type": "uint256"
            },
            {
              "internalType": "address",
              "name": "patientWalletAddress",
              "type": "address"
            },
            {
              "internalType": "string",
              "name": "patientIPFSHash",
              "type": "string"
            },
            {
              "internalType": "string[]",
              "name": "reports",
              "type": "string[]"
            },
            {
              "internalType": "bytes32",
              "name": "txHash",
              "type": "bytes32"
            },
            {
              "internalType": "uint256",
              "name": "dateCreated",
              "type": "uint256"
            }
          ],
          "internalType": "struct MedicalRecord.PatientData[]",
          "name": "",
          "type": "tuple[]"
        }
      ],
      "stateMutability": "view",
      "type": "function"
    },
    {
      "inputs": [
        {
          "internalType": "uint256",
          "name": "_index",
          "type": "uint256"
        },
        {
          "internalType": "address",
          "name": "_patientAddress",
          "type": "address"
        }
      ],
      "name": "getPatientData",
      "outputs": [
        {
          "internalType": "uint256",
          "name": "id",
          "type": "uint256"
        },
        {
          "internalType": "address",
          "name": "patientWalletAddress",
          "type": "address"
        },
        {
          "internalType": "string",
          "name": "patientIPFSHash",
          "type": "string"
        },
        {
          "internalType": "string[]",
          "name": "testResult",
          "type": "string[]"
        },
        {
          "internalType": "bytes32",
          "name": "txHash",
          "type": "bytes32"
        },
        {
          "internalType": "uint256",
          "name": "dateCreated",
          "type": "uint256"
        }
      ],
      "stateMutability": "view",
      "type": "function"
    },
    {
      "inputs": [
        {
          "internalType": "uint256",
          "name": "_index",
          "type": "uint256"
        },
        {
          "internalType": "address",
          "name": "_patientAddress",
          "type": "address"
        }
      ],
      "name": "getPatientReport",
      "outputs": [
        {
          "internalType": "address",
          "name": "patientWalletAddress",
          "type": "address"
        },
        {
          "internalType": "string[]",
          "name": "testResult",
          "type": "string[]"
        },
        {
          "internalType": "bytes32",
          "name": "_txHash",
          "type": "bytes32"
        },
        {
          "internalType": "uint256",
          "name": "_dateCreated",
          "type": "uint256"
        }
      ],
      "stateMutability": "view",
      "type": "function"
    },
    {
      "inputs": [],
      "name": "getPatientTestResults",
      "outputs": [
        {
          "components": [
            {
              "internalType": "address",
              "name": "patientWalletAddress",
              "type": "address"
            },
            {
              "internalType": "string",
              "name": "testResult",
              "type": "string"
            },
            {
              "internalType": "bytes32",
              "name": "txHash",
              "type": "bytes32"
            },
            {
              "internalType": "uint256",
              "name": "dateCreated",
              "type": "uint256"
            }
          ],
          "internalType": "struct MedicalRecord.PatientMedicalReport[]",
          "name": "",
          "type": "tuple[]"
        }
      ],
      "stateMutability": "view",
      "type": "function"
    },
    {
      "inputs": [
        {
          "internalType": "address",
          "name": "",
          "type": "address"
        }
      ],
      "name": "isExist",
      "outputs": [
        {
          "internalType": "bool",
          "name": "",
          "type": "bool"
        }
      ],
      "stateMutability": "view",
      "type": "function"
    },
    {
      "inputs": [],
      "name": "owner",
      "outputs": [
        {
          "internalType": "address",
          "name": "",
          "type": "address"
        }
      ],
      "stateMutability": "view",
      "type": "function"
    },
    {
      "inputs": [],
      "name": "patientCount",
      "outputs": [
        {
          "internalType": "uint256",
          "name": "",
          "type": "uint256"
        }
      ],
      "stateMutability": "view",
      "type": "function"
    },
    {
      "inputs": [],
      "name": "patientId",
      "outputs": [
        {
          "internalType": "uint256",
          "name": "_value",
          "type": "uint256"
        }
      ],
      "stateMutability": "view",
      "type": "function"
    },
    {
      "inputs": [
        {
          "internalType": "uint256",
          "name": "",
          "type": "uint256"
        }
      ],
      "name": "patientReports",
      "outputs": [
        {
          "internalType": "address",
          "name": "patientWalletAddress",
          "type": "address"
        },
        {
          "internalType": "string",
          "name": "testResult",
          "type": "string"
        },
        {
          "internalType": "bytes32",
          "name": "txHash",
          "type": "bytes32"
        },
        {
          "internalType": "uint256",
          "name": "dateCreated",
          "type": "uint256"
        }
      ],
      "stateMutability": "view",
      "type": "function"
    },
    {
      "inputs": [
        {
          "internalType": "uint256",
          "name": "",
          "type": "uint256"
        }
      ],
      "name": "patients",
      "outputs": [
        {
          "internalType": "uint256",
          "name": "id",
          "type": "uint256"
        },
        {
          "internalType": "address",
          "name": "patientWalletAddress",
          "type": "address"
        },
        {
          "internalType": "string",
          "name": "patientIPFSHash",
          "type": "string"
        },
        {
          "internalType": "bytes32",
          "name": "txHash",
          "type": "bytes32"
        },
        {
          "internalType": "uint256",
          "name": "dateCreated",
          "type": "uint256"
        }
      ],
      "stateMutability": "view",
      "type": "function"
    }
  ],
  "bytecode": "0x608060405234801561001057600080fd5b5033600460006101000a81548173ffffffffffffffffffffffffffffffffffffffff021916908373ffffffffffffffffffffffffffffffffffffffff160217905550612771806100616000396000f3fe608060405234801561001057600080fd5b50600436106100ce5760003560e01c80636df0b3a21161008c578063a0303c4111610066578063a0303c4114610231578063ba3127ec1461024f578063db66c06014610282578063e07f44441461029e576100ce565b80636df0b3a2146101ac5780638da5cb5b146101df57806393119a83146101fd576100ce565b806213eb4b146100d3578063047e6ea71461010357806308ca42d714610121578063435d79351461015657806343e08ad1146101745780635418754214610190575b600080fd5b6100ed60048036038101906100e89190611733565b6102bc565b6040516100fa919061177b565b60405180910390f35b61010b6102dc565b6040516101189190611a7b565b60405180910390f35b61013b60048036038101906101369190611ac9565b61051a565b60405161014d96959493929190611c06565b60405180910390f35b61015e610862565b60405161016b9190611d9a565b60405180910390f35b61018e60048036038101906101899190611de8565b610a4d565b005b6101aa60048036038101906101a59190611f4a565b610ae4565b005b6101c660048036038101906101c19190611fa6565b610e16565b6040516101d69493929190611fd3565b60405180910390f35b6101e7610efe565b6040516101f4919061201f565b60405180910390f35b61021760048036038101906102129190611fa6565b610f24565b60405161022895949392919061203a565b60405180910390f35b610239611012565b6040516102469190612094565b60405180910390f35b61026960048036038101906102649190611ac9565b611018565b60405161027994939291906120af565b60405180910390f35b61029c60048036038101906102979190611f4a565b611282565b005b6102a66115b7565b6040516102b39190612094565b60405180910390f35b60056020528060005260406000206000915054906101000a900460ff1681565b60606002805480602002602001604051908101604052809291908181526020016000905b8282101561051157838290600052602060002090600602016040518060c0016040529081600082015481526020016001820160009054906101000a900473ffffffffffffffffffffffffffffffffffffffff1673ffffffffffffffffffffffffffffffffffffffff1673ffffffffffffffffffffffffffffffffffffffff1681526020016002820180546103939061212a565b80601f01602080910402602001604051908101604052809291908181526020018280546103bf9061212a565b801561040c5780601f106103e15761010080835404028352916020019161040c565b820191906000526020600020905b8154815290600101906020018083116103ef57829003601f168201915b5050505050815260200160038201805480602002602001604051908101604052809291908181526020016000905b828210156104e65783829060005260206000200180546104599061212a565b80601f01602080910402602001604051908101604052809291908181526020018280546104859061212a565b80156104d25780601f106104a7576101008083540402835291602001916104d2565b820191906000526020600020905b8154815290600101906020018083116104b557829003601f168201915b50505050508152602001906001019061043a565b5050505081526020016004820154815260200160058201548152505081526020019060010190610300565b50505050905090565b60008060608060008086600460009054906101000a900473ffffffffffffffffffffffffffffffffffffffff1673ffffffffffffffffffffffffffffffffffffffff163373ffffffffffffffffffffffffffffffffffffffff1614806105ab57508073ffffffffffffffffffffffffffffffffffffffff163373ffffffffffffffffffffffffffffffffffffffff16145b6105ea576040517f08c379a00000000000000000000000000000000000000000000000000000000081526004016105e1906121a7565b60405180910390fd5b600289815481106105fe576105fd6121c7565b5b90600052602060002090600602016000015460028a81548110610624576106236121c7565b5b906000526020600020906006020160010160009054906101000a900473ffffffffffffffffffffffffffffffffffffffff1660028b8154811061066a576106696121c7565b5b906000526020600020906006020160020160028c8154811061068f5761068e6121c7565b5b906000526020600020906006020160030160028d815481106106b4576106b36121c7565b5b90600052602060002090600602016004015460028e815481106106da576106d96121c7565b5b9060005260206000209060060201600501548380546106f89061212a565b80601f01602080910402602001604051908101604052809291908181526020018280546107249061212a565b80156107715780601f1061074657610100808354040283529160200191610771565b820191906000526020600020905b81548152906001019060200180831161075457829003601f168201915b5050505050935082805480602002602001604051908101604052809291908181526020016000905b828210156108455783829060005260206000200180546107b89061212a565b80601f01602080910402602001604051908101604052809291908181526020018280546107e49061212a565b80156108315780601f1061080657610100808354040283529160200191610831565b820191906000526020600020905b81548152906001019060200180831161081457829003601f168201915b505050505081526020019060010190610799565b505050509250965096509650965096509650509295509295509295565b6060600460009054906101000a900473ffffffffffffffffffffffffffffffffffffffff1673ffffffffffffffffffffffffffffffffffffffff163373ffffffffffffffffffffffffffffffffffffffff16146108f4576040517f08c379a00000000000000000000000000000000000000000000000000000000081526004016108eb906121a7565b60405180910390fd5b6003805480602002602001604051908101604052809291908181526020016000905b82821015610a4457838290600052602060002090600402016040518060800160405290816000820160009054906101000a900473ffffffffffffffffffffffffffffffffffffffff1673ffffffffffffffffffffffffffffffffffffffff1673ffffffffffffffffffffffffffffffffffffffff16815260200160018201805461099f9061212a565b80601f01602080910402602001604051908101604052809291908181526020018280546109cb9061212a565b8015610a185780601f106109ed57610100808354040283529160200191610a18565b820191906000526020600020905b8154815290600101906020018083116109fb57829003601f168201915b505050505081526020016002820154815260200160038201548152505081526020019060010190610916565b50505050905090565b6000600190506000610a5f60006115c3565b905060008111610aa4576040517f08c379a0000000000000000000000000000000000000000000000000000000008152600401610a9b90612242565b60405180910390fd5b600060028383610ab49190612291565b81548110610ac557610ac46121c7565b5b9060005260206000209060060201905083816004018190555050505050565b600460009054906101000a900473ffffffffffffffffffffffffffffffffffffffff1673ffffffffffffffffffffffffffffffffffffffff163373ffffffffffffffffffffffffffffffffffffffff1614610b74576040517f08c379a0000000000000000000000000000000000000000000000000000000008152600401610b6b906121a7565b60405180910390fd5b6000815111610bb8576040517f08c379a0000000000000000000000000000000000000000000000000000000008152600401610baf90612311565b60405180910390fd5b60008043409050600042905060005b600280549050811015610cf9578573ffffffffffffffffffffffffffffffffffffffff1660028281548110610bff57610bfe6121c7565b5b906000526020600020906006020160010160009054906101000a900473ffffffffffffffffffffffffffffffffffffffff1673ffffffffffffffffffffffffffffffffffffffff1603610ce6576001935060028181548110610c6457610c636121c7565b5b906000526020600020906006020160030185908060018154018082558091505060019003906000526020600020016000909190919091509081610ca791906124dd565b507fd5e1dc8c146b8b7ee8f95f643bd435a54b0b6dfa4379b07c20f8a5f293a29b7c86868585604051610cdd9493929190611fd3565b60405180910390a15b8080610cf1906125af565b915050610bc7565b5082610d3a576040517f08c379a0000000000000000000000000000000000000000000000000000000008152600401610d3190612643565b60405180910390fd5b600360405180608001604052808773ffffffffffffffffffffffffffffffffffffffff16815260200186815260200184815260200183815250908060018154018082558091505060019003906000526020600020906004020160009091909190915060008201518160000160006101000a81548173ffffffffffffffffffffffffffffffffffffffff021916908373ffffffffffffffffffffffffffffffffffffffff1602179055506020820151816001019081610df891906124dd565b50604082015181600201556060820151816003015550505050505050565b60038181548110610e2657600080fd5b90600052602060002090600402016000915090508060000160009054906101000a900473ffffffffffffffffffffffffffffffffffffffff1690806001018054610e6f9061212a565b80601f0160208091040260200160405190810160405280929190818152602001828054610e9b9061212a565b8015610ee85780601f10610ebd57610100808354040283529160200191610ee8565b820191906000526020600020905b815481529060010190602001808311610ecb57829003601f168201915b5050505050908060020154908060030154905084565b600460009054906101000a900473ffffffffffffffffffffffffffffffffffffffff1681565b60028181548110610f3457600080fd5b90600052602060002090600602016000915090508060000154908060010160009054906101000a900473ffffffffffffffffffffffffffffffffffffffff1690806002018054610f839061212a565b80601f0160208091040260200160405190810160405280929190818152602001828054610faf9061212a565b8015610ffc5780601f10610fd157610100808354040283529160200191610ffc565b820191906000526020600020905b815481529060010190602001808311610fdf57829003601f168201915b5050505050908060040154908060050154905085565b60015481565b6000606060008084600460009054906101000a900473ffffffffffffffffffffffffffffffffffffffff1673ffffffffffffffffffffffffffffffffffffffff163373ffffffffffffffffffffffffffffffffffffffff1614806110a757508073ffffffffffffffffffffffffffffffffffffffff163373ffffffffffffffffffffffffffffffffffffffff16145b6110e6576040517f08c379a00000000000000000000000000000000000000000000000000000000081526004016110dd906121a7565b60405180910390fd5b600387815481106110fa576110f96121c7565b5b906000526020600020906004020160000160009054906101000a900473ffffffffffffffffffffffffffffffffffffffff16600288815481106111405761113f6121c7565b5b906000526020600020906006020160030160038981548110611165576111646121c7565b5b90600052602060002090600402016002015460038a8154811061118b5761118a6121c7565b5b90600052602060002090600402016003015482805480602002602001604051908101604052809291908181526020016000905b8282101561126a5783829060005260206000200180546111dd9061212a565b80601f01602080910402602001604051908101604052809291908181526020018280546112099061212a565b80156112565780601f1061122b57610100808354040283529160200191611256565b820191906000526020600020905b81548152906001019060200180831161123957829003601f168201915b5050505050815260200190600101906111be565b50505050925094509450945094505092959194509250565b600460009054906101000a900473ffffffffffffffffffffffffffffffffffffffff1673ffffffffffffffffffffffffffffffffffffffff163373ffffffffffffffffffffffffffffffffffffffff1614611312576040517f08c379a0000000000000000000000000000000000000000000000000000000008152600401611309906121a7565b60405180910390fd5b60011515600560008473ffffffffffffffffffffffffffffffffffffffff1673ffffffffffffffffffffffffffffffffffffffff16815260200190815260200160002060009054906101000a900460ff161515036113a5576040517f08c379a000000000000000000000000000000000000000000000000000000000815260040161139c906126af565b60405180910390fd5b60008151116113e9576040517f08c379a00000000000000000000000000000000000000000000000000000000081526004016113e09061271b565b60405180910390fd5b60006113f560006115c3565b90506060600043409050600042905060026040518060c001604052808681526020018873ffffffffffffffffffffffffffffffffffffffff1681526020018781526020018581526020018481526020018381525090806001815401808255809150506001900390600052602060002090600602016000909190919091506000820151816000015560208201518160010160006101000a81548173ffffffffffffffffffffffffffffffffffffffff021916908373ffffffffffffffffffffffffffffffffffffffff16021790555060408201518160020190816114d891906124dd565b5060608201518160030190805190602001906114f59291906115e7565b506080820151816004015560a08201518160050155505061151660006115d1565b6001600560008873ffffffffffffffffffffffffffffffffffffffff1673ffffffffffffffffffffffffffffffffffffffff16815260200190815260200160002060006101000a81548160ff0219169083151502179055507f2e42963c20afb77b4cb52cc774c84b1a34230ade33265552016c8e8453ed4808600154878785856040516115a795949392919061203a565b60405180910390a1505050505050565b60008060000154905081565b600081600001549050919050565b6001816000016000828254019250508190555050565b82805482825590600052602060002090810192821561162f579160200282015b8281111561162e57825182908161161e91906124dd565b5091602001919060010190611607565b5b50905061163c9190611640565b5090565b5b8082111561166057600081816116579190611664565b50600101611641565b5090565b5080546116709061212a565b6000825580601f1061168257506116a1565b601f0160209004906000526020600020908101906116a091906116a4565b5b50565b5b808211156116bd5760008160009055506001016116a5565b5090565b6000604051905090565b600080fd5b600080fd5b600073ffffffffffffffffffffffffffffffffffffffff82169050919050565b6000611700826116d5565b9050919050565b611710816116f5565b811461171b57600080fd5b50565b60008135905061172d81611707565b92915050565b600060208284031215611749576117486116cb565b5b60006117578482850161171e565b91505092915050565b60008115159050919050565b61177581611760565b82525050565b6000602082019050611790600083018461176c565b92915050565b600081519050919050565b600082825260208201905092915050565b6000819050602082019050919050565b6000819050919050565b6117d5816117c2565b82525050565b6117e4816116f5565b82525050565b600081519050919050565b600082825260208201905092915050565b60005b83811015611824578082015181840152602081019050611809565b60008484015250505050565b6000601f19601f8301169050919050565b600061184c826117ea565b61185681856117f5565b9350611866818560208601611806565b61186f81611830565b840191505092915050565b600081519050919050565b600082825260208201905092915050565b6000819050602082019050919050565b60006118b28383611841565b905092915050565b6000602082019050919050565b60006118d28261187a565b6118dc8185611885565b9350836020820285016118ee85611896565b8060005b8581101561192a578484038952815161190b85826118a6565b9450611916836118ba565b925060208a019950506001810190506118f2565b50829750879550505050505092915050565b6000819050919050565b61194f8161193c565b82525050565b600060c08301600083015161196d60008601826117cc565b50602083015161198060208601826117db565b50604083015184820360408601526119988282611841565b915050606083015184820360608601526119b282826118c7565b91505060808301516119c76080860182611946565b5060a08301516119da60a08601826117cc565b508091505092915050565b60006119f18383611955565b905092915050565b6000602082019050919050565b6000611a1182611796565b611a1b81856117a1565b935083602082028501611a2d856117b2565b8060005b85811015611a695784840389528151611a4a85826119e5565b9450611a55836119f9565b925060208a01995050600181019050611a31565b50829750879550505050505092915050565b60006020820190508181036000830152611a958184611a06565b905092915050565b611aa6816117c2565b8114611ab157600080fd5b50565b600081359050611ac381611a9d565b92915050565b60008060408385031215611ae057611adf6116cb565b5b6000611aee85828601611ab4565b9250506020611aff8582860161171e565b9150509250929050565b611b12816117c2565b82525050565b611b21816116f5565b82525050565b600082825260208201905092915050565b6000611b43826117ea565b611b4d8185611b27565b9350611b5d818560208601611806565b611b6681611830565b840191505092915050565b600082825260208201905092915050565b6000611b8d8261187a565b611b978185611b71565b935083602082028501611ba985611896565b8060005b85811015611be55784840389528151611bc685826118a6565b9450611bd1836118ba565b925060208a01995050600181019050611bad565b50829750879550505050505092915050565b611c008161193c565b82525050565b600060c082019050611c1b6000830189611b09565b611c286020830188611b18565b8181036040830152611c3a8187611b38565b90508181036060830152611c4e8186611b82565b9050611c5d6080830185611bf7565b611c6a60a0830184611b09565b979650505050505050565b600081519050919050565b600082825260208201905092915050565b6000819050602082019050919050565b6000608083016000830151611cb960008601826117db565b5060208301518482036020860152611cd18282611841565b9150506040830151611ce66040860182611946565b506060830151611cf960608601826117cc565b508091505092915050565b6000611d108383611ca1565b905092915050565b6000602082019050919050565b6000611d3082611c75565b611d3a8185611c80565b935083602082028501611d4c85611c91565b8060005b85811015611d885784840389528151611d698582611d04565b9450611d7483611d18565b925060208a01995050600181019050611d50565b50829750879550505050505092915050565b60006020820190508181036000830152611db48184611d25565b905092915050565b611dc58161193c565b8114611dd057600080fd5b50565b600081359050611de281611dbc565b92915050565b600060208284031215611dfe57611dfd6116cb565b5b6000611e0c84828501611dd3565b91505092915050565b600080fd5b600080fd5b7f4e487b7100000000000000000000000000000000000000000000000000000000600052604160045260246000fd5b611e5782611830565b810181811067ffffffffffffffff82111715611e7657611e75611e1f565b5b80604052505050565b6000611e896116c1565b9050611e958282611e4e565b919050565b600067ffffffffffffffff821115611eb557611eb4611e1f565b5b611ebe82611830565b9050602081019050919050565b82818337600083830152505050565b6000611eed611ee884611e9a565b611e7f565b905082815260208101848484011115611f0957611f08611e1a565b5b611f14848285611ecb565b509392505050565b600082601f830112611f3157611f30611e15565b5b8135611f41848260208601611eda565b91505092915050565b60008060408385031215611f6157611f606116cb565b5b6000611f6f8582860161171e565b925050602083013567ffffffffffffffff811115611f9057611f8f6116d0565b5b611f9c85828601611f1c565b9150509250929050565b600060208284031215611fbc57611fbb6116cb565b5b6000611fca84828501611ab4565b91505092915050565b6000608082019050611fe86000830187611b18565b8181036020830152611ffa8186611b38565b90506120096040830185611bf7565b6120166060830184611b09565b95945050505050565b60006020820190506120346000830184611b18565b92915050565b600060a08201905061204f6000830188611b09565b61205c6020830187611b18565b818103604083015261206e8186611b38565b905061207d6060830185611bf7565b61208a6080830184611b09565b9695505050505050565b60006020820190506120a96000830184611b09565b92915050565b60006080820190506120c46000830187611b18565b81810360208301526120d68186611b82565b90506120e56040830185611bf7565b6120f26060830184611b09565b95945050505050565b7f4e487b7100000000000000000000000000000000000000000000000000000000600052602260045260246000fd5b6000600282049050600182168061214257607f821691505b602082108103612155576121546120fb565b5b50919050565b7f596f7520617265206e6f7420746865206f776e65720000000000000000000000600082015250565b6000612191601583611b27565b915061219c8261215b565b602082019050919050565b600060208201905081810360008301526121c081612184565b9050919050565b7f4e487b7100000000000000000000000000000000000000000000000000000000600052603260045260246000fd5b7f4e6f2070726576696f7573207472616e73616374696f6e206578697374730000600082015250565b600061222c601e83611b27565b9150612237826121f6565b602082019050919050565b6000602082019050818103600083015261225b8161221f565b9050919050565b7f4e487b7100000000000000000000000000000000000000000000000000000000600052601160045260246000fd5b600061229c826117c2565b91506122a7836117c2565b92508282039050818111156122bf576122be612262565b5b92915050565b7f456e74657220612076616c6964207465737420726573756c7400000000000000600082015250565b60006122fb601983611b27565b9150612306826122c5565b602082019050919050565b6000602082019050818103600083015261232a816122ee565b9050919050565b60008190508160005260206000209050919050565b60006020601f8301049050919050565b600082821b905092915050565b6000600883026123937fffffffffffffffffffffffffffffffffffffffffffffffffffffffffffffffff82612356565b61239d8683612356565b95508019841693508086168417925050509392505050565b6000819050919050565b60006123da6123d56123d0846117c2565b6123b5565b6117c2565b9050919050565b6000819050919050565b6123f4836123bf565b612408612400826123e1565b848454612363565b825550505050565b600090565b61241d612410565b6124288184846123eb565b505050565b5b8181101561244c57612441600082612415565b60018101905061242e565b5050565b601f8211156124915761246281612331565b61246b84612346565b8101602085101561247a578190505b61248e61248685612346565b83018261242d565b50505b505050565b600082821c905092915050565b60006124b460001984600802612496565b1980831691505092915050565b60006124cd83836124a3565b9150826002028217905092915050565b6124e6826117ea565b67ffffffffffffffff8111156124ff576124fe611e1f565b5b612509825461212a565b612514828285612450565b600060209050601f8311600181146125475760008415612535578287015190505b61253f85826124c1565b8655506125a7565b601f19841661255586612331565b60005b8281101561257d57848901518255600182019150602085019450602081019050612558565b8683101561259a5784890151612596601f8916826124a3565b8355505b6001600288020188555050505b505050505050565b60006125ba826117c2565b91507fffffffffffffffffffffffffffffffffffffffffffffffffffffffffffffffff82036125ec576125eb612262565b5b600182019050919050565b7f50617469656e74207265636f726420646f6573206e6f74206578697374000000600082015250565b600061262d601d83611b27565b9150612638826125f7565b602082019050919050565b6000602082019050818103600083015261265c81612620565b9050919050565b7f50617469656e74207265636f726420616c726561647920657869737400000000600082015250565b6000612699601c83611b27565b91506126a482612663565b602082019050919050565b600060208201905081810360008301526126c88161268c565b9050919050565b7f4950465320486173682072657175697265640000000000000000000000000000600082015250565b6000612705601283611b27565b9150612710826126cf565b602082019050919050565b60006020820190508181036000830152612734816126f8565b905091905056fea26469706673582212202dc08cdde53075e6babb8c202a6f0fed0aa85d32a94489712e1e4391d569a6ab64736f6c63430008110033",
  "linkReferences": {},
  "deployedLinkReferences": {}
}